{
  "_format": "hh-sol-artifact-1",
  "contractName": "DiscreteERC20Bridge",
  "sourceName": "contracts/DiscreteERC20Bridge.sol",
  "abi": [
    {
      "inputs": [
        {
          "internalType": "address",
          "name": "_underlyingToken",
          "type": "address"
        },
        {
          "internalType": "address",
          "name": "_discreteToken",
          "type": "address"
        },
        {
          "internalType": "address",
          "name": "_paillier",
          "type": "address"
        },
        {
          "components": [
            {
              "internalType": "bytes",
              "name": "n",
              "type": "bytes"
            },
            {
              "internalType": "bytes",
              "name": "g",
              "type": "bytes"
            }
          ],
          "internalType": "struct PublicKey",
          "name": "_publicKey",
          "type": "tuple"
        },
        {
          "internalType": "address",
          "name": "_verifier",
          "type": "address"
        }
      ],
      "stateMutability": "nonpayable",
      "type": "constructor"
    },
    {
      "anonymous": false,
      "inputs": [
        {
          "indexed": true,
          "internalType": "address",
          "name": "user",
          "type": "address"
        },
        {
          "indexed": false,
          "internalType": "uint256",
          "name": "amount",
          "type": "uint256"
        },
        {
          "components": [
            {
              "internalType": "bytes",
              "name": "value",
              "type": "bytes"
            }
          ],
          "indexed": false,
          "internalType": "struct Ciphertext",
          "name": "encryptedAmount",
          "type": "tuple"
        }
      ],
      "name": "Deposit",
      "type": "event"
    },
    {
      "anonymous": false,
      "inputs": [
        {
          "indexed": true,
          "internalType": "address",
          "name": "from",
          "type": "address"
        },
        {
          "indexed": true,
          "internalType": "address",
          "name": "to",
          "type": "address"
        },
        {
          "components": [
            {
              "internalType": "bytes",
              "name": "value",
              "type": "bytes"
            }
          ],
          "indexed": false,
          "internalType": "struct Ciphertext",
          "name": "amount",
          "type": "tuple"
        }
      ],
      "name": "TransferEncrypted",
      "type": "event"
    },
    {
      "anonymous": false,
      "inputs": [
        {
          "indexed": true,
          "internalType": "address",
          "name": "user",
          "type": "address"
        },
        {
          "indexed": false,
          "internalType": "uint256",
          "name": "amount",
          "type": "uint256"
        }
      ],
      "name": "Withdraw",
      "type": "event"
    },
    {
      "inputs": [
        {
          "internalType": "uint256",
          "name": "amount",
          "type": "uint256"
        }
      ],
      "name": "deposit",
      "outputs": [],
      "stateMutability": "nonpayable",
      "type": "function"
    },
    {
      "inputs": [],
      "name": "discreteToken",
      "outputs": [
        {
          "internalType": "contract DiscreteERC20",
          "name": "",
          "type": "address"
        }
      ],
      "stateMutability": "view",
      "type": "function"
    },
    {
      "inputs": [],
      "name": "publicKey",
      "outputs": [
        {
          "internalType": "bytes",
          "name": "n",
          "type": "bytes"
        },
        {
          "internalType": "bytes",
          "name": "g",
          "type": "bytes"
        }
      ],
      "stateMutability": "view",
      "type": "function"
    },
    {
      "inputs": [
        {
          "internalType": "address",
          "name": "to",
          "type": "address"
        },
        {
          "components": [
            {
              "internalType": "bytes",
              "name": "value",
              "type": "bytes"
            }
          ],
          "internalType": "struct Ciphertext",
          "name": "encryptedAmount",
          "type": "tuple"
        }
      ],
      "name": "transferEncrypted",
      "outputs": [],
      "stateMutability": "nonpayable",
      "type": "function"
    },
    {
      "inputs": [],
      "name": "underlyingToken",
      "outputs": [
        {
          "internalType": "contract IERC20",
          "name": "",
          "type": "address"
        }
      ],
      "stateMutability": "view",
      "type": "function"
    },
    {
      "inputs": [],
      "name": "verifier",
      "outputs": [
        {
          "internalType": "contract Groth16Verifier",
          "name": "",
          "type": "address"
        }
      ],
      "stateMutability": "view",
      "type": "function"
    },
    {
      "inputs": [
        {
          "internalType": "uint256[2]",
          "name": "",
          "type": "uint256[2]"
        },
        {
          "internalType": "uint256[2][2]",
          "name": "",
          "type": "uint256[2][2]"
        },
        {
          "internalType": "uint256[2]",
          "name": "",
          "type": "uint256[2]"
        },
        {
          "internalType": "uint256[3]",
          "name": "",
          "type": "uint256[3]"
        }
      ],
      "name": "verifyProof",
      "outputs": [
        {
          "internalType": "bool",
          "name": "",
          "type": "bool"
        }
      ],
      "stateMutability": "pure",
      "type": "function"
    },
    {
      "inputs": [
        {
          "internalType": "uint256",
          "name": "amount",
          "type": "uint256"
        },
        {
          "internalType": "uint256[2]",
          "name": "pok_a",
          "type": "uint256[2]"
        },
        {
          "internalType": "uint256[2][2]",
          "name": "pok_b",
          "type": "uint256[2][2]"
        },
        {
          "internalType": "uint256[2]",
          "name": "pok_c",
          "type": "uint256[2]"
        },
        {
          "internalType": "uint256[3]",
          "name": "pok_input",
          "type": "uint256[3]"
        }
      ],
      "name": "withdraw",
      "outputs": [],
      "stateMutability": "nonpayable",
      "type": "function"
    }
  ],
  "bytecode": "0x60c060405234801561001057600080fd5b50604051612004380380612004833981810160405281019061003291906103bc565b8473ffffffffffffffffffffffffffffffffffffffff1660808173ffffffffffffffffffffffffffffffffffffffff1681525050836000806101000a81548173ffffffffffffffffffffffffffffffffffffffff021916908373ffffffffffffffffffffffffffffffffffffffff1602179055508273ffffffffffffffffffffffffffffffffffffffff1660a08173ffffffffffffffffffffffffffffffffffffffff168152505081600160008201518160000190816100f29190610674565b5060208201518160010190816101089190610674565b5090505080600360006101000a81548173ffffffffffffffffffffffffffffffffffffffff021916908373ffffffffffffffffffffffffffffffffffffffff1602179055505050505050610746565b6000604051905090565b600080fd5b600080fd5b600073ffffffffffffffffffffffffffffffffffffffff82169050919050565b60006101968261016b565b9050919050565b6101a68161018b565b81146101b157600080fd5b50565b6000815190506101c38161019d565b92915050565b600080fd5b6000601f19601f8301169050919050565b7f4e487b7100000000000000000000000000000000000000000000000000000000600052604160045260246000fd5b610217826101ce565b810181811067ffffffffffffffff82111715610236576102356101df565b5b80604052505050565b6000610249610157565b9050610255828261020e565b919050565b600080fd5b600080fd5b600080fd5b600067ffffffffffffffff821115610284576102836101df565b5b61028d826101ce565b9050602081019050919050565b60005b838110156102b857808201518184015260208101905061029d565b60008484015250505050565b60006102d76102d284610269565b61023f565b9050828152602081018484840111156102f3576102f2610264565b5b6102fe84828561029a565b509392505050565b600082601f83011261031b5761031a61025f565b5b815161032b8482602086016102c4565b91505092915050565b60006040828403121561034a576103496101c9565b5b610354604061023f565b9050600082015167ffffffffffffffff8111156103745761037361025a565b5b61038084828501610306565b600083015250602082015167ffffffffffffffff8111156103a4576103a361025a565b5b6103b084828501610306565b60208301525092915050565b600080600080600060a086880312156103d8576103d7610161565b5b60006103e6888289016101b4565b95505060206103f7888289016101b4565b9450506040610408888289016101b4565b935050606086015167ffffffffffffffff81111561042957610428610166565b5b61043588828901610334565b9250506080610446888289016101b4565b9150509295509295909350565b600081519050919050565b7f4e487b7100000000000000000000000000000000000000000000000000000000600052602260045260246000fd5b600060028204905060018216806104a557607f821691505b6020821081036104b8576104b761045e565b5b50919050565b60008190508160005260206000209050919050565b60006020601f8301049050919050565b600082821b905092915050565b6000600883026105207fffffffffffffffffffffffffffffffffffffffffffffffffffffffffffffffff826104e3565b61052a86836104e3565b95508019841693508086168417925050509392505050565b6000819050919050565b6000819050919050565b600061057161056c61056784610542565b61054c565b610542565b9050919050565b6000819050919050565b61058b83610556565b61059f61059782610578565b8484546104f0565b825550505050565b600090565b6105b46105a7565b6105bf818484610582565b505050565b5b818110156105e3576105d86000826105ac565b6001810190506105c5565b5050565b601f821115610628576105f9816104be565b610602846104d3565b81016020851015610611578190505b61062561061d856104d3565b8301826105c4565b50505b505050565b600082821c905092915050565b600061064b6000198460080261062d565b1980831691505092915050565b6000610664838361063a565b9150826002028217905092915050565b61067d82610453565b67ffffffffffffffff811115610696576106956101df565b5b6106a0825461048d565b6106ab8282856105e7565b600060209050601f8311600181146106de57600084156106cc578287015190505b6106d68582610658565b86555061073e565b601f1984166106ec866104be565b60005b82811015610714578489015182556001820191506020850194506020810190506106ef565b86831015610731578489015161072d601f89168261063a565b8355505b6001600288020188555050505b505050505050565b60805160a05161188b610779600039600061084f01526000818161019a015281816103a00152610762015261188b6000f3fe608060405234801561001057600080fd5b50600436106100885760003560e01c80635b010ec81161005b5780635b010ec8146101155780635f2ee1bd1461013357806363ffab311461014f578063b6b55f251461016e57610088565b806311479fea1461008d5780632495a599146100bd5780632b7ac3f3146100db57806339c217f7146100f9575b600080fd5b6100a760048036038101906100a29190610a95565b61018a565b6040516100b49190610b19565b60405180910390f35b6100c5610198565b6040516100d29190610bb3565b60405180910390f35b6100e36101bc565b6040516100f09190610bef565b60405180910390f35b610113600480360381019061010e9190610c6c565b6101e2565b005b61011d6102ec565b60405161012a9190610ce9565b60405180910390f35b61014d60048036038101906101489190610d3a565b610310565b005b6101576105fb565b604051610165929190610e47565b60405180910390f35b61018860048036038101906101839190610e7e565b61071d565b005b600060019050949350505050565b7f000000000000000000000000000000000000000000000000000000000000000081565b600360009054906101000a900473ffffffffffffffffffffffffffffffffffffffff1681565b60008054906101000a900473ffffffffffffffffffffffffffffffffffffffff1673ffffffffffffffffffffffffffffffffffffffff16637ecf4ba43384846040518463ffffffff1660e01b815260040161023f93929190610fad565b6020604051808303816000875af115801561025e573d6000803e3d6000fd5b505050506040513d601f19601f820116820180604052508101906102829190611017565b508173ffffffffffffffffffffffffffffffffffffffff163373ffffffffffffffffffffffffffffffffffffffff167f54db1c51579021333ec32cacf641d532288e839b182d47cbf46b1d928d5562cb836040516102e09190611044565b60405180910390a35050565b60008054906101000a900473ffffffffffffffffffffffffffffffffffffffff1681565b61031c8484848461018a565b61035b576040517f08c379a0000000000000000000000000000000000000000000000000000000008152600401610352906110c3565b60405180910390fd5b6000851161039e576040517f08c379a00000000000000000000000000000000000000000000000000000000081526004016103959061112f565b60405180910390fd5b7f000000000000000000000000000000000000000000000000000000000000000073ffffffffffffffffffffffffffffffffffffffff1663a9059cbb33876040518363ffffffff1660e01b81526004016103f992919061115e565b6020604051808303816000875af1158015610418573d6000803e3d6000fd5b505050506040513d601f19601f8201168201806040525081019061043c9190611017565b61047b576040517f08c379a0000000000000000000000000000000000000000000000000000000008152600401610472906111d3565b60405180910390fd5b60008054906101000a900473ffffffffffffffffffffffffffffffffffffffff1673ffffffffffffffffffffffffffffffffffffffff1663ad9eb9963360008054906101000a900473ffffffffffffffffffffffffffffffffffffffff1673ffffffffffffffffffffffffffffffffffffffff1663f8b2cb4f336040518263ffffffff1660e01b815260040161051191906111f3565b600060405180830381865afa15801561052e573d6000803e3d6000fd5b505050506040513d6000823e3d601f19601f820116820180604052508101906105579190611396565b6040518363ffffffff1660e01b8152600401610574929190611442565b600060405180830381600087803b15801561058e57600080fd5b505af11580156105a2573d6000803e3d6000fd5b505050503373ffffffffffffffffffffffffffffffffffffffff167f884edad9ce6fa2440d8a54cc123490eb96d2768479d49ff9c7366125a9424364866040516105ec9190611472565b60405180910390a25050505050565b600180600001805461060c906114bc565b80601f0160208091040260200160405190810160405280929190818152602001828054610638906114bc565b80156106855780601f1061065a57610100808354040283529160200191610685565b820191906000526020600020905b81548152906001019060200180831161066857829003601f168201915b50505050509080600101805461069a906114bc565b80601f01602080910402602001604051908101604052809291908181526020018280546106c6906114bc565b80156107135780601f106106e857610100808354040283529160200191610713565b820191906000526020600020905b8154815290600101906020018083116106f657829003601f168201915b5050505050905082565b60008111610760576040517f08c379a000000000000000000000000000000000000000000000000000000000815260040161075790611539565b60405180910390fd5b7f000000000000000000000000000000000000000000000000000000000000000073ffffffffffffffffffffffffffffffffffffffff166323b872dd3330846040518463ffffffff1660e01b81526004016107bd93929190611559565b6020604051808303816000875af11580156107dc573d6000803e3d6000fd5b505050506040513d601f19601f820116820180604052508101906108009190611017565b61083f576040517f08c379a0000000000000000000000000000000000000000000000000000000008152600401610836906111d3565b60405180910390fd5b60006108496109ed565b905060007f000000000000000000000000000000000000000000000000000000000000000073ffffffffffffffffffffffffffffffffffffffff1663658acd9f848460016040518463ffffffff1660e01b81526004016108ab9392919061166d565b600060405180830381865afa1580156108c8573d6000803e3d6000fd5b505050506040513d6000823e3d601f19601f820116820180604052508101906108f19190611747565b9050600060405180602001604052808360000151815250905060008054906101000a900473ffffffffffffffffffffffffffffffffffffffff1673ffffffffffffffffffffffffffffffffffffffff16635c791b7133836040518363ffffffff1660e01b8152600401610965929190611442565b600060405180830381600087803b15801561097f57600080fd5b505af1158015610993573d6000803e3d6000fd5b505050503373ffffffffffffffffffffffffffffffffffffffff167febcf1a046aabaced3b363251070cf21ff5a8f3c17a3c0442d9c553af8c372d6185836040516109df929190611790565b60405180910390a250505050565b60604233604051602001610a02929190611829565b604051602081830303815290604052905090565b6000604051905090565b600080fd5b600080fd5b600080fd5b600081905082602060020282011115610a4b57610a4a610a2a565b5b92915050565b600081905082604060020282011115610a6d57610a6c610a2a565b5b92915050565b600081905082602060030282011115610a8f57610a8e610a2a565b5b92915050565b6000806000806101608587031215610ab057610aaf610a20565b5b6000610abe87828801610a2f565b9450506040610acf87828801610a51565b93505060c0610ae087828801610a2f565b925050610100610af287828801610a73565b91505092959194509250565b60008115159050919050565b610b1381610afe565b82525050565b6000602082019050610b2e6000830184610b0a565b92915050565b600073ffffffffffffffffffffffffffffffffffffffff82169050919050565b6000819050919050565b6000610b79610b74610b6f84610b34565b610b54565b610b34565b9050919050565b6000610b8b82610b5e565b9050919050565b6000610b9d82610b80565b9050919050565b610bad81610b92565b82525050565b6000602082019050610bc86000830184610ba4565b92915050565b6000610bd982610b80565b9050919050565b610be981610bce565b82525050565b6000602082019050610c046000830184610be0565b92915050565b6000610c1582610b34565b9050919050565b610c2581610c0a565b8114610c3057600080fd5b50565b600081359050610c4281610c1c565b92915050565b600080fd5b600060208284031215610c6357610c62610c48565b5b81905092915050565b60008060408385031215610c8357610c82610a20565b5b6000610c9185828601610c33565b925050602083013567ffffffffffffffff811115610cb257610cb1610a25565b5b610cbe85828601610c4d565b9150509250929050565b6000610cd382610b80565b9050919050565b610ce381610cc8565b82525050565b6000602082019050610cfe6000830184610cda565b92915050565b6000819050919050565b610d1781610d04565b8114610d2257600080fd5b50565b600081359050610d3481610d0e565b92915050565b60008060008060006101808688031215610d5757610d56610a20565b5b6000610d6588828901610d25565b9550506020610d7688828901610a2f565b9450506060610d8788828901610a51565b93505060e0610d9888828901610a2f565b925050610120610daa88828901610a73565b9150509295509295909350565b600081519050919050565b600082825260208201905092915050565b60005b83811015610df1578082015181840152602081019050610dd6565b60008484015250505050565b6000601f19601f8301169050919050565b6000610e1982610db7565b610e238185610dc2565b9350610e33818560208601610dd3565b610e3c81610dfd565b840191505092915050565b60006040820190508181036000830152610e618185610e0e565b90508181036020830152610e758184610e0e565b90509392505050565b600060208284031215610e9457610e93610a20565b5b6000610ea284828501610d25565b91505092915050565b610eb481610c0a565b82525050565b600080fd5b600080fd5b600080fd5b60008083356001602003843603038112610ee657610ee5610ec4565b5b83810192508235915060208301925067ffffffffffffffff821115610f0e57610f0d610eba565b5b600182023603831315610f2457610f23610ebf565b5b509250929050565b600082825260208201905092915050565b82818337600083830152505050565b6000610f588385610f2c565b9350610f65838584610f3d565b610f6e83610dfd565b840190509392505050565b600060208301610f8c6000840184610ec9565b8583036000870152610f9f838284610f4c565b925050508091505092915050565b6000606082019050610fc26000830186610eab565b610fcf6020830185610eab565b8181036040830152610fe18184610f79565b9050949350505050565b610ff481610afe565b8114610fff57600080fd5b50565b60008151905061101181610feb565b92915050565b60006020828403121561102d5761102c610a20565b5b600061103b84828501611002565b91505092915050565b6000602082019050818103600083015261105e8184610f79565b905092915050565b600082825260208201905092915050565b7f7a6b2d706f6b20696e76616c6964000000000000000000000000000000000000600082015250565b60006110ad600e83611066565b91506110b882611077565b602082019050919050565b600060208201905081810360008301526110dc816110a0565b9050919050565b7f496e76616c696420616d6f756e74000000000000000000000000000000000000600082015250565b6000611119600e83611066565b9150611124826110e3565b602082019050919050565b600060208201905081810360008301526111488161110c565b9050919050565b61115881610d04565b82525050565b60006040820190506111736000830185610eab565b611180602083018461114f565b9392505050565b7f5472616e73666572206661696c65640000000000000000000000000000000000600082015250565b60006111bd600f83611066565b91506111c882611187565b602082019050919050565b600060208201905081810360008301526111ec816111b0565b9050919050565b60006020820190506112086000830184610eab565b92915050565b600080fd5b7f4e487b7100000000000000000000000000000000000000000000000000000000600052604160045260246000fd5b61124b82610dfd565b810181811067ffffffffffffffff8211171561126a57611269611213565b5b80604052505050565b600061127d610a16565b90506112898282611242565b919050565b600080fd5b600080fd5b600080fd5b600067ffffffffffffffff8211156112b8576112b7611213565b5b6112c182610dfd565b9050602081019050919050565b60006112e16112dc8461129d565b611273565b9050828152602081018484840111156112fd576112fc611298565b5b611308848285610dd3565b509392505050565b600082601f83011261132557611324611293565b5b81516113358482602086016112ce565b91505092915050565b6000602082840312156113545761135361120e565b5b61135e6020611273565b9050600082015167ffffffffffffffff81111561137e5761137d61128e565b5b61138a84828501611310565b60008301525092915050565b6000602082840312156113ac576113ab610a20565b5b600082015167ffffffffffffffff8111156113ca576113c9610a25565b5b6113d68482850161133e565b91505092915050565b60006113ea82610db7565b6113f48185610f2c565b9350611404818560208601610dd3565b61140d81610dfd565b840191505092915050565b6000602083016000830151848203600086015261143582826113df565b9150508091505092915050565b60006040820190506114576000830185610eab565b81810360208301526114698184611418565b90509392505050565b6000602082019050611487600083018461114f565b92915050565b7f4e487b7100000000000000000000000000000000000000000000000000000000600052602260045260246000fd5b600060028204905060018216806114d457607f821691505b6020821081036114e7576114e661148d565b5b50919050565b7f43616e6e6f74206465706f736974207a65726f20746f6b656e73000000000000600082015250565b6000611523601a83611066565b915061152e826114ed565b602082019050919050565b6000602082019050818103600083015261155281611516565b9050919050565b600060608201905061156e6000830186610eab565b61157b6020830185610eab565b611588604083018461114f565b949350505050565b60008190508160005260206000209050919050565b600081546115b2816114bc565b6115bc8186610f2c565b945060018216600081146115d757600181146115ed57611620565b60ff198316865281151560200286019350611620565b6115f685611590565b60005b83811015611618578154818901526001820191506020810190506115f9565b808801955050505b50505092915050565b6000604083016000808401858303600087015261164683826115a5565b92505060018401858303602087015261165f83826115a5565b925050819250505092915050565b6000606082019050611682600083018661114f565b81810360208301526116948185610e0e565b905081810360408301526116a88184611629565b9050949350505050565b6000815190506116c181610d0e565b92915050565b6000606082840312156116dd576116dc61120e565b5b6116e76060611273565b9050600082015167ffffffffffffffff8111156117075761170661128e565b5b61171384828501611310565b600083015250602061172784828501611002565b602083015250604061173b848285016116b2565b60408301525092915050565b60006020828403121561175d5761175c610a20565b5b600082015167ffffffffffffffff81111561177b5761177a610a25565b5b611787848285016116c7565b91505092915050565b60006040820190506117a5600083018561114f565b81810360208301526117b78184611418565b90509392505050565b6000819050919050565b6117db6117d682610d04565b6117c0565b82525050565b60008160601b9050919050565b60006117f9826117e1565b9050919050565b600061180b826117ee565b9050919050565b61182361181e82610c0a565b611800565b82525050565b600061183582856117ca565b6020820191506118458284611812565b601482019150819050939250505056fea264697066735822122030b70295170041b2daa5b39610edd91af2d1a2b0e435172aa52b7ba6577e57b264736f6c63430008190033",
  "linkReferences": {},
  "deployedLinkReferences": {}
}