{
  "_format": "hh-sol-artifact-1",
  "contractName": "DiscreteERC20",
  "sourceName": "contracts/DiscreteERC20.sol",
  "abi": [
    {
      "inputs": [
        {
          "internalType": "string",
          "name": "_name",
          "type": "string"
        },
        {
          "internalType": "string",
          "name": "_symbol",
          "type": "string"
        },
        {
          "internalType": "uint8",
          "name": "_decimals",
          "type": "uint8"
        },
        {
          "components": [
            {
              "internalType": "bytes",
              "name": "value",
              "type": "bytes"
            }
          ],
          "internalType": "struct Ciphertext",
          "name": "_initialSupply",
          "type": "tuple"
        },
        {
          "internalType": "address",
          "name": "_paillier",
          "type": "address"
        },
        {
          "components": [
            {
              "internalType": "bytes",
              "name": "n",
              "type": "bytes"
            },
            {
              "internalType": "bytes",
              "name": "g",
              "type": "bytes"
            }
          ],
          "internalType": "struct PublicKey",
          "name": "_publicKey",
          "type": "tuple"
        }
      ],
      "stateMutability": "nonpayable",
      "type": "constructor"
    },
    {
      "anonymous": false,
      "inputs": [
        {
          "indexed": true,
          "internalType": "address",
          "name": "owner",
          "type": "address"
        },
        {
          "indexed": true,
          "internalType": "address",
          "name": "spender",
          "type": "address"
        },
        {
          "components": [
            {
              "internalType": "bytes",
              "name": "value",
              "type": "bytes"
            }
          ],
          "indexed": false,
          "internalType": "struct Ciphertext",
          "name": "value",
          "type": "tuple"
        }
      ],
      "name": "Approval",
      "type": "event"
    },
    {
      "anonymous": false,
      "inputs": [
        {
          "indexed": true,
          "internalType": "address",
          "name": "account",
          "type": "address"
        }
      ],
      "name": "RequestBalance",
      "type": "event"
    },
    {
      "anonymous": false,
      "inputs": [
        {
          "indexed": true,
          "internalType": "address",
          "name": "account",
          "type": "address"
        },
        {
          "components": [
            {
              "internalType": "bytes",
              "name": "iv",
              "type": "bytes"
            },
            {
              "internalType": "bytes",
              "name": "ephemPublicKey",
              "type": "bytes"
            },
            {
              "internalType": "bytes",
              "name": "ciphertext",
              "type": "bytes"
            },
            {
              "internalType": "bytes",
              "name": "mac",
              "type": "bytes"
            }
          ],
          "indexed": false,
          "internalType": "struct Secp256k1Ciphertext",
          "name": "balance",
          "type": "tuple"
        }
      ],
      "name": "ResponseBalance",
      "type": "event"
    },
    {
      "anonymous": false,
      "inputs": [
        {
          "indexed": true,
          "internalType": "address",
          "name": "from",
          "type": "address"
        },
        {
          "indexed": true,
          "internalType": "address",
          "name": "to",
          "type": "address"
        },
        {
          "components": [
            {
              "internalType": "bytes",
              "name": "value",
              "type": "bytes"
            }
          ],
          "indexed": false,
          "internalType": "struct Ciphertext",
          "name": "value",
          "type": "tuple"
        }
      ],
      "name": "Transfer",
      "type": "event"
    },
    {
      "inputs": [
        {
          "components": [
            {
              "internalType": "bytes",
              "name": "value",
              "type": "bytes"
            }
          ],
          "internalType": "struct Ciphertext",
          "name": "a",
          "type": "tuple"
        },
        {
          "components": [
            {
              "internalType": "bytes",
              "name": "value",
              "type": "bytes"
            }
          ],
          "internalType": "struct Ciphertext",
          "name": "b",
          "type": "tuple"
        }
      ],
      "name": "_add",
      "outputs": [
        {
          "components": [
            {
              "internalType": "bytes",
              "name": "value",
              "type": "bytes"
            }
          ],
          "internalType": "struct Ciphertext",
          "name": "",
          "type": "tuple"
        }
      ],
      "stateMutability": "view",
      "type": "function"
    },
    {
      "inputs": [
        {
          "components": [
            {
              "internalType": "bytes",
              "name": "value",
              "type": "bytes"
            }
          ],
          "internalType": "struct Ciphertext",
          "name": "a",
          "type": "tuple"
        },
        {
          "components": [
            {
              "internalType": "bytes",
              "name": "value",
              "type": "bytes"
            }
          ],
          "internalType": "struct Ciphertext",
          "name": "b",
          "type": "tuple"
        }
      ],
      "name": "_sub",
      "outputs": [
        {
          "components": [
            {
              "internalType": "bytes",
              "name": "value",
              "type": "bytes"
            }
          ],
          "internalType": "struct Ciphertext",
          "name": "",
          "type": "tuple"
        }
      ],
      "stateMutability": "view",
      "type": "function"
    },
    {
      "inputs": [
        {
          "internalType": "address",
          "name": "",
          "type": "address"
        },
        {
          "internalType": "address",
          "name": "",
          "type": "address"
        }
      ],
      "name": "allowance",
      "outputs": [
        {
          "internalType": "bytes",
          "name": "value",
          "type": "bytes"
        }
      ],
      "stateMutability": "view",
      "type": "function"
    },
    {
      "inputs": [
        {
          "internalType": "address",
          "name": "",
          "type": "address"
        }
      ],
      "name": "balanceOf",
      "outputs": [
        {
          "internalType": "bytes",
          "name": "value",
          "type": "bytes"
        }
      ],
      "stateMutability": "view",
      "type": "function"
    },
    {
      "inputs": [
        {
          "internalType": "address",
          "name": "from",
          "type": "address"
        },
        {
          "components": [
            {
              "internalType": "bytes",
              "name": "value",
              "type": "bytes"
            }
          ],
          "internalType": "struct Ciphertext",
          "name": "amount",
          "type": "tuple"
        }
      ],
      "name": "burn",
      "outputs": [],
      "stateMutability": "nonpayable",
      "type": "function"
    },
    {
      "inputs": [],
      "name": "decimals",
      "outputs": [
        {
          "internalType": "uint8",
          "name": "",
          "type": "uint8"
        }
      ],
      "stateMutability": "view",
      "type": "function"
    },
    {
      "inputs": [
        {
          "internalType": "address",
          "name": "account",
          "type": "address"
        }
      ],
      "name": "getBalance",
      "outputs": [
        {
          "components": [
            {
              "internalType": "bytes",
              "name": "value",
              "type": "bytes"
            }
          ],
          "internalType": "struct Ciphertext",
          "name": "",
          "type": "tuple"
        }
      ],
      "stateMutability": "view",
      "type": "function"
    },
    {
      "inputs": [
        {
          "internalType": "address",
          "name": "to",
          "type": "address"
        },
        {
          "components": [
            {
              "internalType": "bytes",
              "name": "value",
              "type": "bytes"
            }
          ],
          "internalType": "struct Ciphertext",
          "name": "amount",
          "type": "tuple"
        }
      ],
      "name": "mint",
      "outputs": [],
      "stateMutability": "nonpayable",
      "type": "function"
    },
    {
      "inputs": [],
      "name": "name",
      "outputs": [
        {
          "internalType": "string",
          "name": "",
          "type": "string"
        }
      ],
      "stateMutability": "view",
      "type": "function"
    },
    {
      "inputs": [],
      "name": "publicKey",
      "outputs": [
        {
          "internalType": "bytes",
          "name": "n",
          "type": "bytes"
        },
        {
          "internalType": "bytes",
          "name": "g",
          "type": "bytes"
        }
      ],
      "stateMutability": "view",
      "type": "function"
    },
    {
      "inputs": [],
      "name": "requestBalance",
      "outputs": [],
      "stateMutability": "nonpayable",
      "type": "function"
    },
    {
      "inputs": [
        {
          "internalType": "address",
          "name": "target",
          "type": "address"
        },
        {
          "components": [
            {
              "internalType": "bytes",
              "name": "iv",
              "type": "bytes"
            },
            {
              "internalType": "bytes",
              "name": "ephemPublicKey",
              "type": "bytes"
            },
            {
              "internalType": "bytes",
              "name": "ciphertext",
              "type": "bytes"
            },
            {
              "internalType": "bytes",
              "name": "mac",
              "type": "bytes"
            }
          ],
          "internalType": "struct Secp256k1Ciphertext",
          "name": "balance",
          "type": "tuple"
        }
      ],
      "name": "responseBalance",
      "outputs": [],
      "stateMutability": "nonpayable",
      "type": "function"
    },
    {
      "inputs": [],
      "name": "symbol",
      "outputs": [
        {
          "internalType": "string",
          "name": "",
          "type": "string"
        }
      ],
      "stateMutability": "view",
      "type": "function"
    },
    {
      "inputs": [],
      "name": "totalSupply",
      "outputs": [
        {
          "internalType": "bytes",
          "name": "value",
          "type": "bytes"
        }
      ],
      "stateMutability": "view",
      "type": "function"
    },
    {
      "inputs": [
        {
          "internalType": "address",
          "name": "recipient",
          "type": "address"
        },
        {
          "components": [
            {
              "internalType": "bytes",
              "name": "value",
              "type": "bytes"
            }
          ],
          "internalType": "struct Ciphertext",
          "name": "amount",
          "type": "tuple"
        }
      ],
      "name": "transfer",
      "outputs": [
        {
          "internalType": "bool",
          "name": "success",
          "type": "bool"
        }
      ],
      "stateMutability": "nonpayable",
      "type": "function"
    },
    {
      "inputs": [
        {
          "internalType": "address",
          "name": "sender",
          "type": "address"
        },
        {
          "internalType": "address",
          "name": "recipient",
          "type": "address"
        },
        {
          "components": [
            {
              "internalType": "bytes",
              "name": "value",
              "type": "bytes"
            }
          ],
          "internalType": "struct Ciphertext",
          "name": "amount",
          "type": "tuple"
        }
      ],
      "name": "transfer_proxy",
      "outputs": [
        {
          "internalType": "bool",
          "name": "success",
          "type": "bool"
        }
      ],
      "stateMutability": "nonpayable",
      "type": "function"
    }
  ],
  "bytecode": "0x608060405234801561001057600080fd5b506040516133543803806133548339818101604052810190610032919061049d565b856006908161004191906107bb565b50846007908161005191906107bb565b5083600860006101000a81548160ff021916908360ff160217905550816000806101000a81548173ffffffffffffffffffffffffffffffffffffffff021916908373ffffffffffffffffffffffffffffffffffffffff16021790555080600160008201518160000190816100c591906108f3565b5060208201518160010190816100db91906108f3565b5090505082600360008201518160000190816100f791906108f3565b509050505050505050506109c5565b6000604051905090565b600080fd5b600080fd5b600080fd5b600080fd5b6000601f19601f8301169050919050565b7f4e487b7100000000000000000000000000000000000000000000000000000000600052604160045260246000fd5b61016d82610124565b810181811067ffffffffffffffff8211171561018c5761018b610135565b5b80604052505050565b600061019f610106565b90506101ab8282610164565b919050565b600067ffffffffffffffff8211156101cb576101ca610135565b5b6101d482610124565b9050602081019050919050565b60005b838110156101ff5780820151818401526020810190506101e4565b60008484015250505050565b600061021e610219846101b0565b610195565b90508281526020810184848401111561023a5761023961011f565b5b6102458482856101e1565b509392505050565b600082601f8301126102625761026161011a565b5b815161027284826020860161020b565b91505092915050565b600060ff82169050919050565b6102918161027b565b811461029c57600080fd5b50565b6000815190506102ae81610288565b92915050565b600080fd5b600080fd5b600067ffffffffffffffff8211156102d9576102d8610135565b5b6102e282610124565b9050602081019050919050565b60006103026102fd846102be565b610195565b90508281526020810184848401111561031e5761031d61011f565b5b6103298482856101e1565b509392505050565b600082601f8301126103465761034561011a565b5b81516103568482602086016102ef565b91505092915050565b600060208284031215610375576103746102b4565b5b61037f6020610195565b9050600082015167ffffffffffffffff81111561039f5761039e6102b9565b5b6103ab84828501610331565b60008301525092915050565b600073ffffffffffffffffffffffffffffffffffffffff82169050919050565b60006103e2826103b7565b9050919050565b6103f2816103d7565b81146103fd57600080fd5b50565b60008151905061040f816103e9565b92915050565b60006040828403121561042b5761042a6102b4565b5b6104356040610195565b9050600082015167ffffffffffffffff811115610455576104546102b9565b5b61046184828501610331565b600083015250602082015167ffffffffffffffff811115610485576104846102b9565b5b61049184828501610331565b60208301525092915050565b60008060008060008060c087890312156104ba576104b9610110565b5b600087015167ffffffffffffffff8111156104d8576104d7610115565b5b6104e489828a0161024d565b965050602087015167ffffffffffffffff81111561050557610504610115565b5b61051189828a0161024d565b955050604061052289828a0161029f565b945050606087015167ffffffffffffffff81111561054357610542610115565b5b61054f89828a0161035f565b935050608061056089828a01610400565b92505060a087015167ffffffffffffffff81111561058157610580610115565b5b61058d89828a01610415565b9150509295509295509295565b600081519050919050565b7f4e487b7100000000000000000000000000000000000000000000000000000000600052602260045260246000fd5b600060028204905060018216806105ec57607f821691505b6020821081036105ff576105fe6105a5565b5b50919050565b60008190508160005260206000209050919050565b60006020601f8301049050919050565b600082821b905092915050565b6000600883026106677fffffffffffffffffffffffffffffffffffffffffffffffffffffffffffffffff8261062a565b610671868361062a565b95508019841693508086168417925050509392505050565b6000819050919050565b6000819050919050565b60006106b86106b36106ae84610689565b610693565b610689565b9050919050565b6000819050919050565b6106d28361069d565b6106e66106de826106bf565b848454610637565b825550505050565b600090565b6106fb6106ee565b6107068184846106c9565b505050565b5b8181101561072a5761071f6000826106f3565b60018101905061070c565b5050565b601f82111561076f5761074081610605565b6107498461061a565b81016020851015610758578190505b61076c6107648561061a565b83018261070b565b50505b505050565b600082821c905092915050565b600061079260001984600802610774565b1980831691505092915050565b60006107ab8383610781565b9150826002028217905092915050565b6107c48261059a565b67ffffffffffffffff8111156107dd576107dc610135565b5b6107e782546105d4565b6107f282828561072e565b600060209050601f8311600181146108255760008415610813578287015190505b61081d858261079f565b865550610885565b601f19841661083386610605565b60005b8281101561085b57848901518255600182019150602085019450602081019050610836565b868310156108785784890151610874601f891682610781565b8355505b6001600288020188555050505b505050505050565b600081519050919050565b60008190508160005260206000209050919050565b601f8211156108ee576108bf81610898565b6108c88461061a565b810160208510156108d7578190505b6108eb6108e38561061a565b83018261070b565b50505b505050565b6108fc8261088d565b67ffffffffffffffff81111561091557610914610135565b5b61091f82546105d4565b61092a8282856108ad565b600060209050601f83116001811461095d576000841561094b578287015190505b610955858261079f565b8655506109bd565b601f19841661096b86610898565b60005b828110156109935784890151825560018201915060208501945060208101905061096e565b868310156109b057848901516109ac601f891682610781565b8355505b6001600288020188555050505b505050505050565b612980806109d46000396000f3fe608060405234801561001057600080fd5b50600436106101005760003560e01c80638be31acc11610097578063dd62ed3e11610066578063dd62ed3e1461029e578063e1fe34c6146102ce578063f8b2cb4f146102ea578063facddbb11461031a57610100565b80638be31acc1461022a57806395d89b411461025a5780639ccfe61914610278578063ad9eb9961461028257610100565b80635c791b71116100d35780635c791b711461018f57806363ffab31146101ab57806370a08231146101ca5780637ecf4ba4146101fa57610100565b806306fdde03146101055780630c63813b1461012357806318160ddd14610153578063313ce56714610171575b600080fd5b61010d61034a565b60405161011a91906118d9565b60405180910390f35b61013d60048036038101906101389190611991565b6103d8565b60405161014a9190611a08565b60405180910390f35b61015b61080f565b6040516101689190611a78565b60405180910390f35b6101796108a3565b6040516101869190611ab6565b60405180910390f35b6101a960048036038101906101a49190611991565b6108b6565b005b6101b36108c4565b6040516101c1929190611ad1565b60405180910390f35b6101e460048036038101906101df9190611b08565b6109e6565b6040516101f19190611a78565b60405180910390f35b610214600480360381019061020f9190611b35565b610a8c565b6040516102219190611a08565b60405180910390f35b610244600480360381019061023f9190611ba4565b610ec4565b6040516102519190611c90565b60405180910390f35b610262610f8a565b60405161026f91906118d9565b60405180910390f35b610280611018565b005b61029c60048036038101906102979190611991565b61105d565b005b6102b860048036038101906102b39190611cb2565b61106b565b6040516102c59190611a78565b60405180910390f35b6102e860048036038101906102e39190611d11565b61111e565b005b61030460048036038101906102ff9190611b08565b611170565b6040516103119190611c90565b60405180910390f35b610334600480360381019061032f9190611ba4565b61125b565b6040516103419190611c90565b60405180910390f35b6006805461035790611d9c565b80601f016020809104026020016040519081016040528092919081815260200182805461038390611d9c565b80156103d05780601f106103a5576101008083540402835291602001916103d0565b820191906000526020600020905b8154815290600101906020018083116103b357829003601f168201915b505050505081565b60006040518060200160405280600081525080519060200120600460003373ffffffffffffffffffffffffffffffffffffffff1673ffffffffffffffffffffffffffffffffffffffff1681526020019081526020016000206000016040516020016104439190611e70565b6040516020818303038152906040528051906020012003610499576040517f08c379a000000000000000000000000000000000000000000000000000000000815260040161049090611ef9565b60405180910390fd5b6040518060200160405280600081525080519060200120600460008573ffffffffffffffffffffffffffffffffffffffff1673ffffffffffffffffffffffffffffffffffffffff1681526020019081526020016000206000016040516020016105029190611e70565b60405160208183030381529060405280519060200120036105715781600460008573ffffffffffffffffffffffffffffffffffffffff1673ffffffffffffffffffffffffffffffffffffffff1681526020019081526020016000208181610569919061226b565b905050610689565b3073ffffffffffffffffffffffffffffffffffffffff1663facddbb1600460008673ffffffffffffffffffffffffffffffffffffffff1673ffffffffffffffffffffffffffffffffffffffff168152602001908152602001600020846040518363ffffffff1660e01b81526004016105ea92919061240a565b600060405180830381865afa158015610607573d6000803e3d6000fd5b505050506040513d6000823e3d601f19601f82011682018060405250810190610630919061259a565b600460008573ffffffffffffffffffffffffffffffffffffffff1673ffffffffffffffffffffffffffffffffffffffff168152602001908152602001600020600082015181600001908161068491906125e3565b509050505b3073ffffffffffffffffffffffffffffffffffffffff16638be31acc600460003373ffffffffffffffffffffffffffffffffffffffff1673ffffffffffffffffffffffffffffffffffffffff168152602001908152602001600020846040518363ffffffff1660e01b815260040161070292919061240a565b600060405180830381865afa15801561071f573d6000803e3d6000fd5b505050506040513d6000823e3d601f19601f82011682018060405250810190610748919061259a565b600460003373ffffffffffffffffffffffffffffffffffffffff1673ffffffffffffffffffffffffffffffffffffffff168152602001908152602001600020600082015181600001908161079c91906125e3565b509050508273ffffffffffffffffffffffffffffffffffffffff163373ffffffffffffffffffffffffffffffffffffffff167f3c4aa794be1740f35a3d4ae028f349a57c8faba8aa946e6ead0e554d001d9917846040516107fd91906126b5565b60405180910390a36001905092915050565b600380600001805461082090611d9c565b80601f016020809104026020016040519081016040528092919081815260200182805461084c90611d9c565b80156108995780601f1061086e57610100808354040283529160200191610899565b820191906000526020600020905b81548152906001019060200180831161087c57829003601f168201915b5050505050905081565b600860009054906101000a900460ff1681565b6108c08282611321565b5050565b60018060000180546108d590611d9c565b80601f016020809104026020016040519081016040528092919081815260200182805461090190611d9c565b801561094e5780601f106109235761010080835404028352916020019161094e565b820191906000526020600020905b81548152906001019060200180831161093157829003601f168201915b50505050509080600101805461096390611d9c565b80601f016020809104026020016040519081016040528092919081815260200182805461098f90611d9c565b80156109dc5780601f106109b1576101008083540402835291602001916109dc565b820191906000526020600020905b8154815290600101906020018083116109bf57829003601f168201915b5050505050905082565b6004602052806000526040600020600091509050806000018054610a0990611d9c565b80601f0160208091040260200160405190810160405280929190818152602001828054610a3590611d9c565b8015610a825780601f10610a5757610100808354040283529160200191610a82565b820191906000526020600020905b815481529060010190602001808311610a6557829003601f168201915b5050505050905081565b60006040518060200160405280600081525080519060200120600460008673ffffffffffffffffffffffffffffffffffffffff1673ffffffffffffffffffffffffffffffffffffffff168152602001908152602001600020600001604051602001610af79190611e70565b6040516020818303038152906040528051906020012003610b4d576040517f08c379a0000000000000000000000000000000000000000000000000000000008152600401610b4490611ef9565b60405180910390fd5b6040518060200160405280600081525080519060200120600460008573ffffffffffffffffffffffffffffffffffffffff1673ffffffffffffffffffffffffffffffffffffffff168152602001908152602001600020600001604051602001610bb69190611e70565b6040516020818303038152906040528051906020012003610c255781600460008573ffffffffffffffffffffffffffffffffffffffff1673ffffffffffffffffffffffffffffffffffffffff1681526020019081526020016000208181610c1d919061226b565b905050610d3d565b3073ffffffffffffffffffffffffffffffffffffffff1663facddbb1600460008673ffffffffffffffffffffffffffffffffffffffff1673ffffffffffffffffffffffffffffffffffffffff168152602001908152602001600020846040518363ffffffff1660e01b8152600401610c9e92919061240a565b600060405180830381865afa158015610cbb573d6000803e3d6000fd5b505050506040513d6000823e3d601f19601f82011682018060405250810190610ce4919061259a565b600460008573ffffffffffffffffffffffffffffffffffffffff1673ffffffffffffffffffffffffffffffffffffffff1681526020019081526020016000206000820151816000019081610d3891906125e3565b509050505b3073ffffffffffffffffffffffffffffffffffffffff16638be31acc600460008773ffffffffffffffffffffffffffffffffffffffff1673ffffffffffffffffffffffffffffffffffffffff168152602001908152602001600020846040518363ffffffff1660e01b8152600401610db692919061240a565b600060405180830381865afa158015610dd3573d6000803e3d6000fd5b505050506040513d6000823e3d601f19601f82011682018060405250810190610dfc919061259a565b600460008673ffffffffffffffffffffffffffffffffffffffff1673ffffffffffffffffffffffffffffffffffffffff1681526020019081526020016000206000820151816000019081610e5091906125e3565b509050508273ffffffffffffffffffffffffffffffffffffffff168473ffffffffffffffffffffffffffffffffffffffff167f3c4aa794be1740f35a3d4ae028f349a57c8faba8aa946e6ead0e554d001d991784604051610eb191906126b5565b60405180910390a3600190509392505050565b610ecc611836565b604051806020016040528060008054906101000a900473ffffffffffffffffffffffffffffffffffffffff1673ffffffffffffffffffffffffffffffffffffffff16631e219e9f868660016040518463ffffffff1660e01b8152600401610f359392919061271b565b600060405180830381865afa158015610f52573d6000803e3d6000fd5b505050506040513d6000823e3d601f19601f82011682018060405250810190610f7b919061283f565b60000151815250905092915050565b60078054610f9790611d9c565b80601f0160208091040260200160405190810160405280929190818152602001828054610fc390611d9c565b80156110105780601f10610fe557610100808354040283529160200191611010565b820191906000526020600020905b815481529060010190602001808311610ff357829003601f168201915b505050505081565b3373ffffffffffffffffffffffffffffffffffffffff167f201c6ce3a29572cb14d576cd97af7a5a3a332e0ac25bb247bb3632b6215c396d60405160405180910390a2565b6110678282611618565b5050565b60056020528160005260406000206020528060005260406000206000915091505080600001805461109b90611d9c565b80601f01602080910402602001604051908101604052809291908181526020018280546110c790611d9c565b80156111145780601f106110e957610100808354040283529160200191611114565b820191906000526020600020905b8154815290600101906020018083116110f757829003601f168201915b5050505050905081565b8173ffffffffffffffffffffffffffffffffffffffff167f9d093e6e652ebb2c5f44e12f13025f9e5f2eea9f4fa2c8e50c7a81e9442c3e6c826040516111649190612928565b60405180910390a25050565b611178611836565b600460008373ffffffffffffffffffffffffffffffffffffffff1673ffffffffffffffffffffffffffffffffffffffff1681526020019081526020016000206040518060200160405290816000820180546111d290611d9c565b80601f01602080910402602001604051908101604052809291908181526020018280546111fe90611d9c565b801561124b5780601f106112205761010080835404028352916020019161124b565b820191906000526020600020905b81548152906001019060200180831161122e57829003601f168201915b5050505050815250509050919050565b611263611836565b604051806020016040528060008054906101000a900473ffffffffffffffffffffffffffffffffffffffff1673ffffffffffffffffffffffffffffffffffffffff1663e7646008868660016040518463ffffffff1660e01b81526004016112cc9392919061271b565b600060405180830381865afa1580156112e9573d6000803e3d6000fd5b505050506040513d6000823e3d601f19601f82011682018060405250810190611312919061283f565b60000151815250905092915050565b6040518060200160405280600081525080519060200120600460008473ffffffffffffffffffffffffffffffffffffffff1673ffffffffffffffffffffffffffffffffffffffff16815260200190815260200160002060000160405160200161138a9190611e70565b60405160208183030381529060405280519060200120036113f95780600460008473ffffffffffffffffffffffffffffffffffffffff1673ffffffffffffffffffffffffffffffffffffffff16815260200190815260200160002081816113f1919061226b565b905050611511565b3073ffffffffffffffffffffffffffffffffffffffff1663facddbb1600460008573ffffffffffffffffffffffffffffffffffffffff1673ffffffffffffffffffffffffffffffffffffffff168152602001908152602001600020836040518363ffffffff1660e01b815260040161147292919061240a565b600060405180830381865afa15801561148f573d6000803e3d6000fd5b505050506040513d6000823e3d601f19601f820116820180604052508101906114b8919061259a565b600460008473ffffffffffffffffffffffffffffffffffffffff1673ffffffffffffffffffffffffffffffffffffffff168152602001908152602001600020600082015181600001908161150c91906125e3565b509050505b3073ffffffffffffffffffffffffffffffffffffffff1663facddbb16003836040518363ffffffff1660e01b815260040161154d92919061240a565b600060405180830381865afa15801561156a573d6000803e3d6000fd5b505050506040513d6000823e3d601f19601f82011682018060405250810190611593919061259a565b600360008201518160000190816115aa91906125e3565b509050508173ffffffffffffffffffffffffffffffffffffffff16600073ffffffffffffffffffffffffffffffffffffffff167f3c4aa794be1740f35a3d4ae028f349a57c8faba8aa946e6ead0e554d001d99178360405161160c91906126b5565b60405180910390a35050565b3073ffffffffffffffffffffffffffffffffffffffff16638be31acc600460008573ffffffffffffffffffffffffffffffffffffffff1673ffffffffffffffffffffffffffffffffffffffff168152602001908152602001600020836040518363ffffffff1660e01b815260040161169192919061240a565b600060405180830381865afa1580156116ae573d6000803e3d6000fd5b505050506040513d6000823e3d601f19601f820116820180604052508101906116d7919061259a565b600460008473ffffffffffffffffffffffffffffffffffffffff1673ffffffffffffffffffffffffffffffffffffffff168152602001908152602001600020600082015181600001908161172b91906125e3565b509050503073ffffffffffffffffffffffffffffffffffffffff16638be31acc6003836040518363ffffffff1660e01b815260040161176b92919061240a565b600060405180830381865afa158015611788573d6000803e3d6000fd5b505050506040513d6000823e3d601f19601f820116820180604052508101906117b1919061259a565b600360008201518160000190816117c891906125e3565b50905050600073ffffffffffffffffffffffffffffffffffffffff168273ffffffffffffffffffffffffffffffffffffffff167f3c4aa794be1740f35a3d4ae028f349a57c8faba8aa946e6ead0e554d001d99178360405161182a91906126b5565b60405180910390a35050565b6040518060200160405280606081525090565b600081519050919050565b600082825260208201905092915050565b60005b83811015611883578082015181840152602081019050611868565b60008484015250505050565b6000601f19601f8301169050919050565b60006118ab82611849565b6118b58185611854565b93506118c5818560208601611865565b6118ce8161188f565b840191505092915050565b600060208201905081810360008301526118f381846118a0565b905092915050565b6000604051905090565b600080fd5b600080fd5b600073ffffffffffffffffffffffffffffffffffffffff82169050919050565b600061193a8261190f565b9050919050565b61194a8161192f565b811461195557600080fd5b50565b60008135905061196781611941565b92915050565b600080fd5b6000602082840312156119885761198761196d565b5b81905092915050565b600080604083850312156119a8576119a7611905565b5b60006119b685828601611958565b925050602083013567ffffffffffffffff8111156119d7576119d661190a565b5b6119e385828601611972565b9150509250929050565b60008115159050919050565b611a02816119ed565b82525050565b6000602082019050611a1d60008301846119f9565b92915050565b600081519050919050565b600082825260208201905092915050565b6000611a4a82611a23565b611a548185611a2e565b9350611a64818560208601611865565b611a6d8161188f565b840191505092915050565b60006020820190508181036000830152611a928184611a3f565b905092915050565b600060ff82169050919050565b611ab081611a9a565b82525050565b6000602082019050611acb6000830184611aa7565b92915050565b60006040820190508181036000830152611aeb8185611a3f565b90508181036020830152611aff8184611a3f565b90509392505050565b600060208284031215611b1e57611b1d611905565b5b6000611b2c84828501611958565b91505092915050565b600080600060608486031215611b4e57611b4d611905565b5b6000611b5c86828701611958565b9350506020611b6d86828701611958565b925050604084013567ffffffffffffffff811115611b8e57611b8d61190a565b5b611b9a86828701611972565b9150509250925092565b60008060408385031215611bbb57611bba611905565b5b600083013567ffffffffffffffff811115611bd957611bd861190a565b5b611be585828601611972565b925050602083013567ffffffffffffffff811115611c0657611c0561190a565b5b611c1285828601611972565b9150509250929050565b600082825260208201905092915050565b6000611c3882611a23565b611c428185611c1c565b9350611c52818560208601611865565b611c5b8161188f565b840191505092915050565b60006020830160008301518482036000860152611c838282611c2d565b9150508091505092915050565b60006020820190508181036000830152611caa8184611c66565b905092915050565b60008060408385031215611cc957611cc8611905565b5b6000611cd785828601611958565b9250506020611ce885828601611958565b9150509250929050565b600060808284031215611d0857611d0761196d565b5b81905092915050565b60008060408385031215611d2857611d27611905565b5b6000611d3685828601611958565b925050602083013567ffffffffffffffff811115611d5757611d5661190a565b5b611d6385828601611cf2565b9150509250929050565b7f4e487b7100000000000000000000000000000000000000000000000000000000600052602260045260246000fd5b60006002820490506001821680611db457607f821691505b602082108103611dc757611dc6611d6d565b5b50919050565b600081905092915050565b60008190508160005260206000209050919050565b60008154611dfa81611d9c565b611e048186611dcd565b94506001821660008114611e1f5760018114611e3457611e67565b60ff1983168652811515820286019350611e67565b611e3d85611dd8565b60005b83811015611e5f57815481890152600182019150602081019050611e40565b838801955050505b50505092915050565b6000611e7c8284611ded565b915081905092915050565b7f446973637265746545524332303a207472616e736665722066726f6d2074686560008201527f207a65726f206164647265737300000000000000000000000000000000000000602082015250565b6000611ee3602d83611854565b9150611eee82611e87565b604082019050919050565b60006020820190508181036000830152611f1281611ed6565b9050919050565b600080fd5b600080fd5b600080fd5b60008083356001602003843603038112611f4557611f44611f19565b5b80840192508235915067ffffffffffffffff821115611f6757611f66611f1e565b5b602083019250600182023603831315611f8357611f82611f23565b5b509250929050565b600082905092915050565b7f4e487b7100000000000000000000000000000000000000000000000000000000600052604160045260246000fd5b60006020601f8301049050919050565b600082821b905092915050565b6000600883026120127fffffffffffffffffffffffffffffffffffffffffffffffffffffffffffffffff82611fd5565b61201c8683611fd5565b95508019841693508086168417925050509392505050565b6000819050919050565b6000819050919050565b600061206361205e61205984612034565b61203e565b612034565b9050919050565b6000819050919050565b61207d83612048565b6120916120898261206a565b848454611fe2565b825550505050565b600090565b6120a6612099565b6120b1818484612074565b505050565b5b818110156120d5576120ca60008261209e565b6001810190506120b7565b5050565b601f82111561211a576120eb81611dd8565b6120f484611fc5565b81016020851015612103578190505b61211761210f85611fc5565b8301826120b6565b50505b505050565b600082821c905092915050565b600061213d6000198460080261211f565b1980831691505092915050565b6000612156838361212c565b9150826002028217905092915050565b6121708383611f8b565b67ffffffffffffffff81111561218957612188611f96565b5b6121938254611d9c565b61219e8282856120d9565b6000601f8311600181146121cd57600084156121bb578287013590505b6121c5858261214a565b86555061222d565b601f1984166121db86611dd8565b60005b82811015612203578489013582556001820191506020850194506020810190506121de565b86831015612220578489013561221c601f89168261212c565b8355505b6001600288020188555050505b50505050505050565b612241838383612166565b505050565b60008101600083016122588185611f28565b612263818386612236565b505050505050565b6122758282612246565b5050565b6000815461228681611d9c565b6122908186611c1c565b945060018216600081146122ab57600181146122c1576122f4565b60ff1983168652811515602002860193506122f4565b6122ca85611dd8565b60005b838110156122ec578154818901526001820191506020810190506122cd565b808801955050505b50505092915050565b6000602083016000808401858303600087015261231a8382612279565b925050819250505092915050565b600080fd5b600080fd5b600080fd5b6000808335600160200384360303811261235457612353612332565b5b83810192508235915060208301925067ffffffffffffffff82111561237c5761237b612328565b5b6001820236038313156123925761239161232d565b5b509250929050565b82818337600083830152505050565b60006123b58385611c1c565b93506123c283858461239a565b6123cb8361188f565b840190509392505050565b6000602083016123e96000840184612337565b85830360008701526123fc8382846123a9565b925050508091505092915050565b6000604082019050818103600083015261242481856122fd565b9050818103602083015261243881846123d6565b90509392505050565b600080fd5b61244f8261188f565b810181811067ffffffffffffffff8211171561246e5761246d611f96565b5b80604052505050565b60006124816118fb565b905061248d8282612446565b919050565b600080fd5b600080fd5b600080fd5b600067ffffffffffffffff8211156124bc576124bb611f96565b5b6124c58261188f565b9050602081019050919050565b60006124e56124e0846124a1565b612477565b9050828152602081018484840111156125015761250061249c565b5b61250c848285611865565b509392505050565b600082601f83011261252957612528612497565b5b81516125398482602086016124d2565b91505092915050565b60006020828403121561255857612557612441565b5b6125626020612477565b9050600082015167ffffffffffffffff81111561258257612581612492565b5b61258e84828501612514565b60008301525092915050565b6000602082840312156125b0576125af611905565b5b600082015167ffffffffffffffff8111156125ce576125cd61190a565b5b6125da84828501612542565b91505092915050565b6125ec82611a23565b67ffffffffffffffff81111561260557612604611f96565b5b61260f8254611d9c565b61261a8282856120d9565b600060209050601f83116001811461264d576000841561263b578287015190505b612645858261214a565b8655506126ad565b601f19841661265b86611dd8565b60005b828110156126835784890151825560018201915060208501945060208101905061265e565b868310156126a0578489015161269c601f89168261212c565b8355505b6001600288020188555050505b505050505050565b600060208201905081810360008301526126cf81846123d6565b905092915050565b600060408301600080840185830360008701526126f48382612279565b92505060018401858303602087015261270d8382612279565b925050819250505092915050565b6000606082019050818103600083015261273581866123d6565b9050818103602083015261274981856123d6565b9050818103604083015261275d81846126d7565b9050949350505050565b612770816119ed565b811461277b57600080fd5b50565b60008151905061278d81612767565b92915050565b61279c81612034565b81146127a757600080fd5b50565b6000815190506127b981612793565b92915050565b6000606082840312156127d5576127d4612441565b5b6127df6060612477565b9050600082015167ffffffffffffffff8111156127ff576127fe612492565b5b61280b84828501612514565b600083015250602061281f8482850161277e565b6020830152506040612833848285016127aa565b60408301525092915050565b60006020828403121561285557612854611905565b5b600082015167ffffffffffffffff8111156128735761287261190a565b5b61287f848285016127bf565b91505092915050565b60006080830161289b6000840184612337565b85830360008701526128ae8382846123a9565b925050506128bf6020840184612337565b85830360208701526128d28382846123a9565b925050506128e36040840184612337565b85830360408701526128f68382846123a9565b925050506129076060840184612337565b858303606087015261291a8382846123a9565b925050508091505092915050565b600060208201905081810360008301526129428184612888565b90509291505056fea26469706673582212202da13f8814fee0cb0f23357dcf1d28d3f8b41029a02e23bc9739601dbcebf52164736f6c63430008190033",
  "linkReferences": {},
  "deployedLinkReferences": {}
}