{
  "_format": "hh-sol-artifact-1",
  "contractName": "Paillier",
  "sourceName": "contracts/Paillier.sol",
  "abi": [
    {
      "inputs": [
        {
          "components": [
            {
              "internalType": "bytes",
              "name": "value",
              "type": "bytes"
            }
          ],
          "internalType": "struct Ciphertext",
          "name": "a",
          "type": "tuple"
        },
        {
          "components": [
            {
              "internalType": "bytes",
              "name": "value",
              "type": "bytes"
            }
          ],
          "internalType": "struct Ciphertext",
          "name": "b",
          "type": "tuple"
        },
        {
          "components": [
            {
              "internalType": "bytes",
              "name": "n",
              "type": "bytes"
            },
            {
              "internalType": "bytes",
              "name": "g",
              "type": "bytes"
            }
          ],
          "internalType": "struct PublicKey",
          "name": "publicKey",
          "type": "tuple"
        }
      ],
      "name": "add",
      "outputs": [
        {
          "components": [
            {
              "internalType": "bytes",
              "name": "val",
              "type": "bytes"
            },
            {
              "internalType": "bool",
              "name": "neg",
              "type": "bool"
            },
            {
              "internalType": "uint256",
              "name": "bitlen",
              "type": "uint256"
            }
          ],
          "internalType": "struct BigNumber",
          "name": "",
          "type": "tuple"
        }
      ],
      "stateMutability": "view",
      "type": "function"
    },
    {
      "inputs": [
        {
          "components": [
            {
              "internalType": "bytes",
              "name": "value",
              "type": "bytes"
            }
          ],
          "internalType": "struct Ciphertext",
          "name": "a",
          "type": "tuple"
        },
        {
          "internalType": "uint256",
          "name": "b",
          "type": "uint256"
        },
        {
          "components": [
            {
              "internalType": "bytes",
              "name": "n",
              "type": "bytes"
            },
            {
              "internalType": "bytes",
              "name": "g",
              "type": "bytes"
            }
          ],
          "internalType": "struct PublicKey",
          "name": "publicKey",
          "type": "tuple"
        }
      ],
      "name": "add_const",
      "outputs": [
        {
          "components": [
            {
              "internalType": "bytes",
              "name": "val",
              "type": "bytes"
            },
            {
              "internalType": "bool",
              "name": "neg",
              "type": "bool"
            },
            {
              "internalType": "uint256",
              "name": "bitlen",
              "type": "uint256"
            }
          ],
          "internalType": "struct BigNumber",
          "name": "",
          "type": "tuple"
        }
      ],
      "stateMutability": "view",
      "type": "function"
    },
    {
      "inputs": [
        {
          "components": [
            {
              "internalType": "bytes",
              "name": "value",
              "type": "bytes"
            }
          ],
          "internalType": "struct Ciphertext",
          "name": "encValue",
          "type": "tuple"
        },
        {
          "components": [
            {
              "internalType": "bytes",
              "name": "n",
              "type": "bytes"
            },
            {
              "internalType": "bytes",
              "name": "g",
              "type": "bytes"
            }
          ],
          "internalType": "struct PublicKey",
          "name": "publicKey",
          "type": "tuple"
        },
        {
          "components": [
            {
              "internalType": "bytes",
              "name": "lambda",
              "type": "bytes"
            },
            {
              "internalType": "bytes",
              "name": "mu",
              "type": "bytes"
            }
          ],
          "internalType": "struct PrivateKey",
          "name": "privateKey",
          "type": "tuple"
        },
        {
          "internalType": "bytes",
          "name": "sigma",
          "type": "bytes"
        }
      ],
      "name": "decrypt",
      "outputs": [
        {
          "components": [
            {
              "internalType": "bytes",
              "name": "val",
              "type": "bytes"
            },
            {
              "internalType": "bool",
              "name": "neg",
              "type": "bool"
            },
            {
              "internalType": "uint256",
              "name": "bitlen",
              "type": "uint256"
            }
          ],
          "internalType": "struct BigNumber",
          "name": "",
          "type": "tuple"
        }
      ],
      "stateMutability": "view",
      "type": "function"
    },
    {
      "inputs": [
        {
          "components": [
            {
              "internalType": "bytes",
              "name": "value",
              "type": "bytes"
            }
          ],
          "internalType": "struct Ciphertext",
          "name": "a",
          "type": "tuple"
        },
        {
          "internalType": "uint256",
          "name": "b",
          "type": "uint256"
        },
        {
          "components": [
            {
              "internalType": "bytes",
              "name": "n",
              "type": "bytes"
            },
            {
              "internalType": "bytes",
              "name": "g",
              "type": "bytes"
            }
          ],
          "internalType": "struct PublicKey",
          "name": "publicKey",
          "type": "tuple"
        }
      ],
      "name": "div_const",
      "outputs": [
        {
          "components": [
            {
              "internalType": "bytes",
              "name": "val",
              "type": "bytes"
            },
            {
              "internalType": "bool",
              "name": "neg",
              "type": "bool"
            },
            {
              "internalType": "uint256",
              "name": "bitlen",
              "type": "uint256"
            }
          ],
          "internalType": "struct BigNumber",
          "name": "",
          "type": "tuple"
        }
      ],
      "stateMutability": "view",
      "type": "function"
    },
    {
      "inputs": [
        {
          "internalType": "uint256",
          "name": "value",
          "type": "uint256"
        },
        {
          "internalType": "bytes",
          "name": "rnd",
          "type": "bytes"
        },
        {
          "components": [
            {
              "internalType": "bytes",
              "name": "n",
              "type": "bytes"
            },
            {
              "internalType": "bytes",
              "name": "g",
              "type": "bytes"
            }
          ],
          "internalType": "struct PublicKey",
          "name": "publicKey",
          "type": "tuple"
        }
      ],
      "name": "encrypt",
      "outputs": [
        {
          "components": [
            {
              "internalType": "bytes",
              "name": "val",
              "type": "bytes"
            },
            {
              "internalType": "bool",
              "name": "neg",
              "type": "bool"
            },
            {
              "internalType": "uint256",
              "name": "bitlen",
              "type": "uint256"
            }
          ],
          "internalType": "struct BigNumber",
          "name": "",
          "type": "tuple"
        }
      ],
      "stateMutability": "view",
      "type": "function"
    },
    {
      "inputs": [
        {
          "internalType": "bytes",
          "name": "rnd",
          "type": "bytes"
        },
        {
          "components": [
            {
              "internalType": "bytes",
              "name": "n",
              "type": "bytes"
            },
            {
              "internalType": "bytes",
              "name": "g",
              "type": "bytes"
            }
          ],
          "internalType": "struct PublicKey",
          "name": "publicKey",
          "type": "tuple"
        }
      ],
      "name": "encryptZero",
      "outputs": [
        {
          "components": [
            {
              "internalType": "bytes",
              "name": "val",
              "type": "bytes"
            },
            {
              "internalType": "bool",
              "name": "neg",
              "type": "bool"
            },
            {
              "internalType": "uint256",
              "name": "bitlen",
              "type": "uint256"
            }
          ],
          "internalType": "struct BigNumber",
          "name": "",
          "type": "tuple"
        }
      ],
      "stateMutability": "view",
      "type": "function"
    },
    {
      "inputs": [
        {
          "components": [
            {
              "internalType": "bytes",
              "name": "value",
              "type": "bytes"
            }
          ],
          "internalType": "struct Ciphertext",
          "name": "a",
          "type": "tuple"
        },
        {
          "internalType": "uint256",
          "name": "b",
          "type": "uint256"
        },
        {
          "components": [
            {
              "internalType": "bytes",
              "name": "n",
              "type": "bytes"
            },
            {
              "internalType": "bytes",
              "name": "g",
              "type": "bytes"
            }
          ],
          "internalType": "struct PublicKey",
          "name": "publicKey",
          "type": "tuple"
        }
      ],
      "name": "mul_const",
      "outputs": [
        {
          "components": [
            {
              "internalType": "bytes",
              "name": "val",
              "type": "bytes"
            },
            {
              "internalType": "bool",
              "name": "neg",
              "type": "bool"
            },
            {
              "internalType": "uint256",
              "name": "bitlen",
              "type": "uint256"
            }
          ],
          "internalType": "struct BigNumber",
          "name": "",
          "type": "tuple"
        }
      ],
      "stateMutability": "view",
      "type": "function"
    },
    {
      "inputs": [
        {
          "components": [
            {
              "internalType": "bytes",
              "name": "value",
              "type": "bytes"
            }
          ],
          "internalType": "struct Ciphertext",
          "name": "a",
          "type": "tuple"
        },
        {
          "components": [
            {
              "internalType": "bytes",
              "name": "value",
              "type": "bytes"
            }
          ],
          "internalType": "struct Ciphertext",
          "name": "b",
          "type": "tuple"
        },
        {
          "components": [
            {
              "internalType": "bytes",
              "name": "n",
              "type": "bytes"
            },
            {
              "internalType": "bytes",
              "name": "g",
              "type": "bytes"
            }
          ],
          "internalType": "struct PublicKey",
          "name": "publicKey",
          "type": "tuple"
        }
      ],
      "name": "sub",
      "outputs": [
        {
          "components": [
            {
              "internalType": "bytes",
              "name": "val",
              "type": "bytes"
            },
            {
              "internalType": "bool",
              "name": "neg",
              "type": "bool"
            },
            {
              "internalType": "uint256",
              "name": "bitlen",
              "type": "uint256"
            }
          ],
          "internalType": "struct BigNumber",
          "name": "",
          "type": "tuple"
        }
      ],
      "stateMutability": "view",
      "type": "function"
    },
    {
      "inputs": [
        {
          "components": [
            {
              "internalType": "bytes",
              "name": "value",
              "type": "bytes"
            }
          ],
          "internalType": "struct Ciphertext",
          "name": "a",
          "type": "tuple"
        },
        {
          "internalType": "int256",
          "name": "b",
          "type": "int256"
        },
        {
          "components": [
            {
              "internalType": "bytes",
              "name": "n",
              "type": "bytes"
            },
            {
              "internalType": "bytes",
              "name": "g",
              "type": "bytes"
            }
          ],
          "internalType": "struct PublicKey",
          "name": "publicKey",
          "type": "tuple"
        }
      ],
      "name": "sub_const",
      "outputs": [
        {
          "components": [
            {
              "internalType": "bytes",
              "name": "val",
              "type": "bytes"
            },
            {
              "internalType": "bool",
              "name": "neg",
              "type": "bool"
            },
            {
              "internalType": "uint256",
              "name": "bitlen",
              "type": "uint256"
            }
          ],
          "internalType": "struct BigNumber",
          "name": "",
          "type": "tuple"
        }
      ],
      "stateMutability": "view",
      "type": "function"
    }
  ],
  "bytecode": "0x6080604052348015600f57600080fd5b50613a078061001f6000396000f3fe608060405234801561001057600080fd5b50600436106100935760003560e01c8063b680886d11610066578063b680886d14610158578063bc3f90c214610188578063bf066081146101b8578063e1834bfb146101e8578063e76460081461021857610093565b80631e219e9f146100985780632b7c974d146100c8578063658acd9f146100f85780638d84bf4e14610128575b600080fd5b6100b260048036038101906100ad9190613044565b610248565b6040516100bf91906131ff565b60405180910390f35b6100e260048036038101906100dd919061324d565b610518565b6040516100ef91906131ff565b60405180910390f35b610112600480360381019061010d919061340d565b6107c2565b60405161011f91906131ff565b60405180910390f35b610142600480360381019061013d91906134ce565b610a2b565b60405161014f91906131ff565b60405180910390f35b610172600480360381019061016d919061324d565b610d41565b60405161017f91906131ff565b60405180910390f35b6101a2600480360381019061019d9190613559565b610faa565b6040516101af91906131ff565b60405180910390f35b6101d260048036038101906101cd919061324d565b6110d7565b6040516101df91906131ff565b60405180910390f35b61020260048036038101906101fd9190613650565b6112a9565b60405161020f91906131ff565b60405180910390f35b610232600480360381019061022d9190613044565b611722565b60405161023f91906131ff565b60405180910390f35b610250612fca565b6000604051806060016040528086806000019061026d919061373b565b8080601f016020809104026020016040519081016040528093929190818152602001838380828437600081840152601f19601f8201169050808301925050505050505081526020016000151581526020016103198780600001906102d1919061373b565b8080601f016020809104026020016040519081016040528093929190818152602001838380828437600081840152601f19601f820116905080830192505050505050506119c3565b81525090506000604051806060016040528086806000019061033b919061373b565b8080601f016020809104026020016040519081016040528093929190818152602001838380828437600081840152601f19601f8201169050808301925050505050505081526020016000151581526020016103e787806000019061039f919061373b565b8080601f016020809104026020016040519081016040528093929190818152602001838380828437600081840152601f19601f820116905080830192505050505050506119c3565b815250905060006040518060600160405280868060000190610409919061373b565b8080601f016020809104026020016040519081016040528093929190818152602001838380828437600081840152601f19601f8201169050808301925050505050505081526020016000151581526020016104b587806000019061046d919061373b565b8080601f016020809104026020016040519081016040528093929190818152602001838380828437600081840152601f19601f820116905080830192505050505050506119c3565b815250905060006104c7826002611a03565b905060006104e6846104e0856104db611a31565b611a73565b84611cc2565b905060006105066105008388611dbf90919063ffffffff16565b84611e64565b90508096505050505050509392505050565b610520612fca565b6000604051806060016040528086806000019061053d919061373b565b8080601f016020809104026020016040519081016040528093929190818152602001838380828437600081840152601f19601f8201169050808301925050505050505081526020016000151581526020016105e98780600001906105a1919061373b565b8080601f016020809104026020016040519081016040528093929190818152602001838380828437600081840152601f19601f820116905080830192505050505050506119c3565b81525090506000604051806060016040528085806000019061060b919061373b565b8080601f016020809104026020016040519081016040528093929190818152602001838380828437600081840152601f19601f8201169050808301925050505050505081526020016000151581526020016106b786806000019061066f919061373b565b8080601f016020809104026020016040519081016040528093929190818152602001838380828437600081840152601f19601f820116905080830192505050505050506119c3565b8152509050600060405180606001604052808680602001906106d9919061373b565b8080601f016020809104026020016040519081016040528093929190818152602001838380828437600081840152601f19601f82011690508083019250505050505050815260200160001515815260200161078587806020019061073d919061373b565b8080601f016020809104026020016040519081016040528093929190818152602001838380828437600081840152601f19601f820116905080830192505050505050506119c3565b815250905060006107b26107a28561079d858b611a03565b611dbf565b6107ad856002611a03565b611e64565b9050809450505050509392505050565b6107ca612fca565b600060405180606001604052808480600001906107e7919061373b565b8080601f016020809104026020016040519081016040528093929190818152602001838380828437600081840152601f19601f82011690508083019250505050505050815260200160001515815260200161089385806000019061084b919061373b565b8080601f016020809104026020016040519081016040528093929190818152602001838380828437600081840152601f19601f820116905080830192505050505050506119c3565b8152509050600060405180606001604052808580602001906108b5919061373b565b8080601f016020809104026020016040519081016040528093929190818152602001838380828437600081840152601f19601f820116905080830192505050505050508152602001600015158152602001610961868060200190610919919061373b565b8080601f016020809104026020016040519081016040528093929190818152602001838380828437600081840152601f19601f820116905080830192505050505050506119c3565b815250905060006109bb8260405180606001604052808a60405160200161098891906137bf565b60405160208183030381529060405281526020016000151581526020016101008152506109b6866002611a03565b611cc2565b905060006109f960405180606001604052808981526020016000151581526020016109e58a6119c3565b815250856109f4876002611a03565b611cc2565b90506000610a1a610a0a8484611dbf565b610a15876002611a03565b611e64565b905080955050505050509392505050565b610a33612fca565b60006040518060600160405280868060000190610a50919061373b565b8080601f016020809104026020016040519081016040528093929190818152602001838380828437600081840152601f19601f820116905080830192505050505050508152602001600015158152602001610afc878060000190610ab4919061373b565b8080601f016020809104026020016040519081016040528093929190818152602001838380828437600081840152601f19601f820116905080830192505050505050506119c3565b815250905060006040518060600160405280858060000190610b1e919061373b565b8080601f016020809104026020016040519081016040528093929190818152602001838380828437600081840152601f19601f820116905080830192505050505050508152602001600015158152602001610bca868060000190610b82919061373b565b8080601f016020809104026020016040519081016040528093929190818152602001838380828437600081840152601f19601f820116905080830192505050505050506119c3565b815250905060006040518060600160405280868060200190610bec919061373b565b8080601f016020809104026020016040519081016040528093929190818152602001838380828437600081840152601f19601f820116905080830192505050505050508152602001600015158152602001610c98878060200190610c50919061373b565b8080601f016020809104026020016040519081016040528093929190818152602001838380828437600081840152601f19601f820116905080830192505050505050506119c3565b81525090506000604051806060016040528088604051602001610cbb91906137fb565b604051602081830303815290604052815260200160011515815260200161010081525090506000610cec8285611e64565b90506000610cfb856002611a03565b90506000610d2e82610d20610d11888787611cc2565b8a611dbf90919063ffffffff16565b611e6490919063ffffffff16565b9050809750505050505050509392505050565b610d49612fca565b60006040518060600160405280868060000190610d66919061373b565b8080601f016020809104026020016040519081016040528093929190818152602001838380828437600081840152601f19601f820116905080830192505050505050508152602001600015158152602001610e12878060000190610dca919061373b565b8080601f016020809104026020016040519081016040528093929190818152602001838380828437600081840152601f19601f820116905080830192505050505050506119c3565b815250905060006040518060600160405280858060000190610e34919061373b565b8080601f016020809104026020016040519081016040528093929190818152602001838380828437600081840152601f19601f820116905080830192505050505050508152602001600115158152602001610ee0868060000190610e98919061373b565b8080601f016020809104026020016040519081016040528093929190818152602001838380828437600081840152601f19601f820116905080830192505050505050506119c3565b81525090506000604051806060016040528087604051602001610f0391906137bf565b604051602081830303815290604052815260200160001515815260200161010081525090506000604051806060016040528088604051602001610f4691906137bf565b604051602081830303815290604052815260200160001515815260200161010081525090506000610f78846002611a03565b90506000610f8884848785611e86565b90506000610f97878385611cc2565b9050809750505050505050509392505050565b610fb2612fca565b60006040518060600160405280858152602001600015158152602001610fd7866119c3565b815250905060006040518060600160405280858060000190610ff9919061373b565b8080601f016020809104026020016040519081016040528093929190818152602001838380828437600081840152601f19601f8201169050808301925050505050505081526020016000151581526020016110a586806000019061105d919061373b565b8080601f016020809104026020016040519081016040528093929190818152602001838380828437600081840152601f19601f820116905080830192505050505050506119c3565b815250905060006110c96110b98484611dbf565b6110c4846002611a03565b611e64565b905080935050505092915050565b6110df612fca565b600060405180606001604052808680600001906110fc919061373b565b8080601f016020809104026020016040519081016040528093929190818152602001838380828437600081840152601f19601f8201169050808301925050505050505081526020016000151581526020016111a8878060000190611160919061373b565b8080601f016020809104026020016040519081016040528093929190818152602001838380828437600081840152601f19601f820116905080830192505050505050506119c3565b8152509050600060405180606001604052808580600001906111ca919061373b565b8080601f016020809104026020016040519081016040528093929190818152602001838380828437600081840152601f19601f82011690508083019250505050505050815260200160001515815260200161127686806000019061122e919061373b565b8080601f016020809104026020016040519081016040528093929190818152602001838380828437600081840152601f19601f820116905080830192505050505050506119c3565b8152509050600061129a61128a8488611a03565b611295846002611a03565b611e64565b90508093505050509392505050565b6112b1612fca565b600060405180606001604052808880600001906112ce919061373b565b8080601f016020809104026020016040519081016040528093929190818152602001838380828437600081840152601f19601f82011690508083019250505050505050815260200160001515815260200161137a898060000190611332919061373b565b8080601f016020809104026020016040519081016040528093929190818152602001838380828437600081840152601f19601f820116905080830192505050505050506119c3565b81525090506000604051806060016040528087806000019061139c919061373b565b8080601f016020809104026020016040519081016040528093929190818152602001838380828437600081840152601f19601f820116905080830192505050505050508152602001600015158152602001611448888060000190611400919061373b565b8080601f016020809104026020016040519081016040528093929190818152602001838380828437600081840152601f19601f820116905080830192505050505050506119c3565b81525090506000604051806060016040528088806020019061146a919061373b565b8080601f016020809104026020016040519081016040528093929190818152602001838380828437600081840152601f19601f8201169050808301925050505050505081526020016000151581526020016115168980602001906114ce919061373b565b8080601f016020809104026020016040519081016040528093929190818152602001838380828437600081840152601f19601f820116905080830192505050505050506119c3565b8152509050600060405180606001604052808a8060000190611538919061373b565b8080601f016020809104026020016040519081016040528093929190818152602001838380828437600081840152601f19601f8201169050808301925050505050505081526020016000151581526020016115e48b806000019061159c919061373b565b8080601f016020809104026020016040519081016040528093929190818152602001838380828437600081840152601f19601f820116905080830192505050505050506119c3565b81525090506000604051806060016040528089898080601f016020809104026020016040519081016040528093929190818152602001838380828437600081840152601f19601f8201169050808301925050505050505081526020016000151581526020016116968a8a8080601f016020809104026020016040519081016040528093929190818152602001838380828437600081840152601f19601f820116905080830192505050505050506119c3565b815250905060006116b286866116ad866002611a03565b611cc2565b90506116bf818484611f9a565b6116fe576040517f08c379a00000000000000000000000000000000000000000000000000000000081526004016116f590613873565b60405180910390fd5b61171161170b8386611dbf565b84611e64565b965050505050505095945050505050565b61172a612fca565b60006040518060600160405280868060000190611747919061373b565b8080601f016020809104026020016040519081016040528093929190818152602001838380828437600081840152601f19601f8201169050808301925050505050505081526020016000151581526020016117f38780600001906117ab919061373b565b8080601f016020809104026020016040519081016040528093929190818152602001838380828437600081840152601f19601f820116905080830192505050505050506119c3565b815250905060006040518060600160405280868060000190611815919061373b565b8080601f016020809104026020016040519081016040528093929190818152602001838380828437600081840152601f19601f8201169050808301925050505050505081526020016000151581526020016118c1878060000190611879919061373b565b8080601f016020809104026020016040519081016040528093929190818152602001838380828437600081840152601f19601f820116905080830192505050505050506119c3565b8152509050600060405180606001604052808680600001906118e3919061373b565b8080601f016020809104026020016040519081016040528093929190818152602001838380828437600081840152601f19601f82011690508083019250505050505050815260200160001515815260200161198f878060000190611947919061373b565b8080601f016020809104026020016040519081016040528093929190818152602001838380828437600081840152601f19601f820116905080830192505050505050506119c3565b815250905060006119b36119a38585611dbf565b6119ae846002611a03565b611e64565b9050809450505050509392505050565b60006119ce826121bb565b156119dc57600090506119fe565b6000602083015190506119ee81612212565b9150600860208451030282019150505b919050565b611a0b612fca565b611a2983611a1a846000612468565b611a2486866124a3565b611cc2565b905092915050565b611a39612fca565b6040518060600160405280604051806040016040528060208152602001600181525081526020016000151581526020016001815250905090565b611a7b612fca565b60008360400151148015611a93575060008260400151145b15611aa757611aa061251f565b9050611cbc565b6060600080611ab886866000612561565b9150856020015180611acb575084602001515b15611c025785602001518015611ae2575084602001515b15611b8e5760018203611b1f57611b018660000151866000015161273e565b80925081945050506001846020019015159081151581525050611b89565b7fffffffffffffffffffffffffffffffffffffffffffffffffffffffffffffffff8203611b7657611b588560000151876000015161273e565b80925081945050506000846020019015159081151581525050611b88565b611b7e61251f565b9350505050611cbc565b5b611bfd565b60008212611bba57611bad866000015186600001518860400151612869565b8092508194505050611bda565b611bd1856000015187600001518760400151612869565b80925081945050505b8560200151611bea576000611bed565b60015b8460200190151590811515815250505b611ca5565b60018203611c3a57611c1c8660000151866000015161273e565b80925081945050506000846020019015159081151581525050611ca4565b7fffffffffffffffffffffffffffffffffffffffffffffffffffffffffffffffff8203611c9157611c738560000151876000015161273e565b80925081945050506001846020019015159081151581525050611ca3565b611c9961251f565b9350505050611cbc565b5b5b828460000181905250808460400181815250505050505b92915050565b611cca612fca565b6000151583602001511515148015611cea57506000151582602001511515145b8015611d005750611cfe82600001516121bb565b155b611d0957600080fd5b6000611d2285600001518560000151856000015161299f565b90506000611d2f826119c3565b905060008103611d4a57611d4161251f565b92505050611db8565b85602001518015611d605750611d5f85612a79565b5b15611d9557611d8c60405180606001604052808481526020016001151581526020018381525085612a8e565b92505050611db8565b604051806060016040528083815260200160001515815260200182815250925050505b9392505050565b611dc7612fca565b6000611dd38484612a8e565b90506000611df382611de3612cb6565b611dee8560026124a3565b611cc2565b9050611dff8585612cf8565b611e4e576000611e0f8686611a73565b90506000611e2f82611e1f612cb6565b611e2a8560026124a3565b611cc2565b9050611e45611e3e8483611a73565b6002612d24565b94505050611e5c565b611e59816002612d24565b92505b505092915050565b611e6c612fca565b611e7e83611e78611a31565b84611cc2565b905092915050565b611e8e612fca565b8460200151158015611ea1575082602001515b611eaa57600080fd5b8160200151158015611ec65750611ec482600001516121bb565b155b611ecf57600080fd5b611eda858386612e86565b611ee357600080fd5b6000611efc85600001518560000151856000015161299f565b90506000611f09826119c3565b905060008103611f2457611f1b61251f565b92505050611f92565b85602001518015611f3a5750611f3985612a79565b5b15611f6f57611f6660405180606001604052808481526020016001151581526020018381525085612a8e565b92505050611f92565b604051806060016040528083815260200160001515815260200182815250925050505b949350505050565b60007fffffffffffffffffffffffffffffffffffffffffffffffffffffffffffffffff611fc985856000612561565b03611ff6576000611fe3611fdb61251f565b846000612561565b14611fed57600080fd5b600190506121b4565b60008460200151801561200a575083602001515b806120255750846020015115801561202457508360200151155b5b90508061203657826020015161203d565b8260200151155b61204657600080fd5b600061205b8561205461251f565b6001612561565b0361206557600080fd5b6000604051806060016040528087602001511515151581526020018660200151151515158152602001856020015115151515815250905060008660200190151590811515815250506000856020019015159081151581525050600084602001901515908115158152505060006120db8686611dbf565b905060006120eb82896001612561565b036120fc57600193505050506121b4565b60006121108861210a611a31565b84611cc2565b905060006121296121218484612a8e565b8a6001612561565b1461213357600080fd5b8260006003811061214757612146613893565b5b60200201518860200190151590811515815250508260016003811061216f5761216e613893565b5b60200201518760200190151590811515815250508260026003811061219757612196613893565b5b602002015186602001901515908115158152505060019450505050505b9392505050565b600080600060208401905060005b8451811015612205578151925060008311156121eb576000935050505061220d565b6020820191506020816121fe91906138f1565b90506121c9565b506001925050505b919050565b60008082146001811461245d578260018403935060028404841793506004840484179350601084048417935061010084048417935062010000840484179350640100000000840484179350680100000000000000008404841793507001000000000000000000000000000000008404841793506001840193506040517ff8f9cbfae6cc78fbefe7cdc3a1793dfcf4f0e8bbd8cec470b6a28a7a5a3e1efd81527ff5ecf1b3e9debc68e1d9cfabc5997135bfb7a7a3938b7b606b5b4b3f2f1f0ffe60208201527ff6e4ed9ff2d6b458eadcdf97bd91692de2d4da8fd2d0ac50c6ae9a827252361660408201527fc8c0b887b0a8a4489c948c7f847c6125746c645c544c444038302820181008ff60608201527ff7cae577eec2a03cf3bad76fb589591debb2dd67e0aa9834bea6925f6a4a2e0e60808201527fe39ed557db96902cd38ed14fad815115c786af479b7e8324736353433727170760a08201527fc976c13bb96e881cb166a933a55e490d9d56952b8d4e801485467d236242260660c08201527f753a6d1b65325d0c552a4d1345224105391a310b29122104190a11030902010060e082015261010081016040527e818283848586878898a8b8c8d8e8f929395969799a9b9d9e9faaeb6bedeeff7f01000000000000000000000000000000000000000000000000000000000000008082880204818160ff038501510496507f800000000000000000000000000000000000000000000000000000000000000085116101000287019650600060018603861603612453576001870196505b5050505050612462565b600091505b50919050565b612470612fca565b61249b8360405160200161248491906137bf565b604051602081830303815290604052836000612ed9565b905092915050565b6124ab612fca565b6000604051806040016040528060208152602001600081525090506000836040860151029050600161010082061b6020600161010084040102835280602084015260208351018301604052506040518060600160405280838152602001600015158152602001828152509250505092915050565b612527612fca565b6040518060600160405280604051806040016040528060208152602001600081525081526020016000151581526020016000815250905090565b60008060019050821561262c5784602001518015612580575083602001515b156125ad577fffffffffffffffffffffffffffffffffffffffffffffffffffffffffffffffff905061262b565b60001515856020015115151480156125cd57506001151584602001511515145b156125dc576001915050612737565b60011515856020015115151480156125fc57506000151584602001511515145b1561262a577fffffffffffffffffffffffffffffffffffffffffffffffffffffffffffffffff915050612737565b5b5b8360400151856040015111156126455780915050612737565b84604001518460400151111561268957807fffffffffffffffffffffffffffffffffffffffffffffffffffffffffffffffff6126819190613925565b915050612737565b6000806000806000896000015151905060208a510194506020895101935060005b8181101561272b57808601519350808501519250828411156126d55786975050505050505050612737565b8383111561271757867fffffffffffffffffffffffffffffffffffffffffffffffffffffffffffffffff6127099190613925565b975050505050505050612737565b60208161272491906138f1565b90506126aa565b50600096505050505050505b9392505050565b6060600060606000807fffffffffffffffffffffffffffffffffffffffffffffffffffffffffffffffff90505987518751808203828b01828b0184860160208101865b600080821403612811578451868211600181146127c2578c8203855260018d146000831416600181146127b75760009d506127bc565b60019d505b506127f8565b85518d81840303865260018e148d8214168e8201841017600181146127ea5760009e506127ef565b60019e505b50602087039650505b5060208403935060208603955050602081039050612781565b506020820191505b600082510361283957602088019750602087039650602082019150612819565b879a50868b528060405250505050505050506000612856846119c3565b9050838195509550505050509250929050565b606060006060596000600160000388518901885189018a5160208601018b515b6000808214036129355783518c518e51038211600181146128cd5787820184526001881482881416600181146128c257600098506128c7565b600198505b5061291c565b845188818401018552888103880383116001811461290e576000821160008b111789851416600181146129035760009a50612908565b60019a505b50612913565b600199505b50602086039550505b5060208303925060208503945050602081039050612889565b50600085146001811461294b5760018252612952565b6020870196505b50859650846020028c510187526020875101870160405260208701516001816101008d061c146001821417156129895760018b019a505b5050505050505080849250925050935093915050565b606083518351835160405183815282602082015281604082015283606082018560208b0160046101c2fa84606001848184018660208c0160046101c2fa91508481019050838184018560208b0160046101c2fa915081600081036129ff57fe5b5083810190508360608401828560056105465a03fa91508160008103612a2157fe5b5083606084015b60006020831403612a5857600081511460018114612a465750612a58565b60208201915050602082039150612a28565b60208103985081895285856060010160405250505050505050509392505050565b60008151518251016002815106915050919050565b612a96612fca565b60008360400151148015612aae575060008260400151145b15612ac257612abb61251f565b9050612cb0565b6000836040015103612ad657819050612cb0565b6000826040015103612aea57829050612cb0565b6060600080612afb86866000612561565b9050856020015180612b0e575084602001515b15612c3b5785602001518015612b25575084602001515b15612b8c5760008112612b5657612b49866000015186600001518860400151612869565b8093508194505050612b76565b612b6d856000015187600001518760400151612869565b80935081945050505b6001846020019015159081151581525050612c36565b60018103612bc757612ba68660000151866000015161273e565b80935081945050508560200151846020019015159081151581525050612c35565b7fffffffffffffffffffffffffffffffffffffffffffffffffffffffffffffffff8103612c2257612c008560000151876000015161273e565b8093508194505050856020015115846020019015159081151581525050612c34565b612c2a61251f565b9350505050612cb0565b5b5b612c99565b60008112612c6757612c5a866000015186600001518860400151612869565b8093508194505050612c87565b612c7e856000015187600001518760400151612869565b80935081945050505b60008460200190151590811515815250505b828460000181905250818460400181815250505050505b92915050565b612cbe612fca565b6040518060600160405280604051806040016040528060208152602001600281525081526020016000151581526020016002815250905090565b600080612d0784846001612561565b905060008114612d18576000612d1b565b60015b91505092915050565b612d2c612fca565b6000835151905083604001518310612d7b576040518060600160405280604051806040016040528060208152602001600081525081526020016000151581526020016000815250915050612e80565b828460400151612d8b919061399d565b846040018181525050610100831461010084111715612dbc5760206101008404028103905080845152610100830692505b83516000600885061460018114612e2d576000808661010003858501865b600080821403612e23576020811460018114612dfc5760208303519550612e01565b600095505b5081518a1c935084831b94508484178252602082039150602081039050612dda565b5050505050612e5b565b6008850486518051602081018383018482038282848760046101c2fa6000601f840153848652505050505050505b5060208101600081511460018103612e7857602083510382528187525b505050839150505b92915050565b60008360200151158015612e9c57508260200151155b612ea557600080fd5b6000612ec4612eb5868587612fa6565b612ebd611a31565b6001612561565b14612ece57600080fd5b600190509392505050565b612ee1612fca565b6020840184516000596000602084061460018114612f1357602084066020036020818401019350808501835250612f1d565b6020820192508382525b508282848660046101c2fa506020815101810160405280515b60006020821403612f6957600060208301511460018114612f575750612f69565b60208301925050602081039050612f36565b808252818652876020870152505050505060008214612f885781612f96565b612f9581600001516119c3565b5b8160400181815250509392505050565b612fae612fca565b612fc1612fbb8585611dbf565b83611e64565b90509392505050565b604051806060016040528060608152602001600015158152602001600081525090565b6000604051905090565b600080fd5b600080fd5b600080fd5b60006020828403121561301c5761301b613001565b5b81905092915050565b60006040828403121561303b5761303a613001565b5b81905092915050565b60008060006060848603121561305d5761305c612ff7565b5b600084013567ffffffffffffffff81111561307b5761307a612ffc565b5b61308786828701613006565b935050602084013567ffffffffffffffff8111156130a8576130a7612ffc565b5b6130b486828701613006565b925050604084013567ffffffffffffffff8111156130d5576130d4612ffc565b5b6130e186828701613025565b9150509250925092565b600081519050919050565b600082825260208201905092915050565b60005b8381101561312557808201518184015260208101905061310a565b60008484015250505050565b6000601f19601f8301169050919050565b600061314d826130eb565b61315781856130f6565b9350613167818560208601613107565b61317081613131565b840191505092915050565b60008115159050919050565b6131908161317b565b82525050565b6000819050919050565b6131a981613196565b82525050565b600060608301600083015184820360008601526131cc8282613142565b91505060208301516131e16020860182613187565b5060408301516131f460408601826131a0565b508091505092915050565b6000602082019050818103600083015261321981846131af565b905092915050565b61322a81613196565b811461323557600080fd5b50565b60008135905061324781613221565b92915050565b60008060006060848603121561326657613265612ff7565b5b600084013567ffffffffffffffff81111561328457613283612ffc565b5b61329086828701613006565b93505060206132a186828701613238565b925050604084013567ffffffffffffffff8111156132c2576132c1612ffc565b5b6132ce86828701613025565b9150509250925092565b600080fd5b600080fd5b7f4e487b7100000000000000000000000000000000000000000000000000000000600052604160045260246000fd5b61331a82613131565b810181811067ffffffffffffffff82111715613339576133386132e2565b5b80604052505050565b600061334c612fed565b90506133588282613311565b919050565b600067ffffffffffffffff821115613378576133776132e2565b5b61338182613131565b9050602081019050919050565b82818337600083830152505050565b60006133b06133ab8461335d565b613342565b9050828152602081018484840111156133cc576133cb6132dd565b5b6133d784828561338e565b509392505050565b600082601f8301126133f4576133f36132d8565b5b813561340484826020860161339d565b91505092915050565b60008060006060848603121561342657613425612ff7565b5b600061343486828701613238565b935050602084013567ffffffffffffffff81111561345557613454612ffc565b5b613461868287016133df565b925050604084013567ffffffffffffffff81111561348257613481612ffc565b5b61348e86828701613025565b9150509250925092565b6000819050919050565b6134ab81613498565b81146134b657600080fd5b50565b6000813590506134c8816134a2565b92915050565b6000806000606084860312156134e7576134e6612ff7565b5b600084013567ffffffffffffffff81111561350557613504612ffc565b5b61351186828701613006565b9350506020613522868287016134b9565b925050604084013567ffffffffffffffff81111561354357613542612ffc565b5b61354f86828701613025565b9150509250925092565b600080604083850312156135705761356f612ff7565b5b600083013567ffffffffffffffff81111561358e5761358d612ffc565b5b61359a858286016133df565b925050602083013567ffffffffffffffff8111156135bb576135ba612ffc565b5b6135c785828601613025565b9150509250929050565b6000604082840312156135e7576135e6613001565b5b81905092915050565b600080fd5b600080fd5b60008083601f8401126136105761360f6132d8565b5b8235905067ffffffffffffffff81111561362d5761362c6135f0565b5b602083019150836001820283011115613649576136486135f5565b5b9250929050565b60008060008060006080868803121561366c5761366b612ff7565b5b600086013567ffffffffffffffff81111561368a57613689612ffc565b5b61369688828901613006565b955050602086013567ffffffffffffffff8111156136b7576136b6612ffc565b5b6136c388828901613025565b945050604086013567ffffffffffffffff8111156136e4576136e3612ffc565b5b6136f0888289016135d1565b935050606086013567ffffffffffffffff81111561371157613710612ffc565b5b61371d888289016135fa565b92509250509295509295909350565b600080fd5b600080fd5b600080fd5b600080833560016020038436030381126137585761375761372c565b5b80840192508235915067ffffffffffffffff82111561377a57613779613731565b5b60208301925060018202360383131561379657613795613736565b5b509250929050565b6000819050919050565b6137b96137b482613196565b61379e565b82525050565b60006137cb82846137a8565b60208201915081905092915050565b6000819050919050565b6137f56137f082613498565b6137da565b82525050565b600061380782846137e4565b60208201915081905092915050565b600082825260208201905092915050565b7f496e76616c6964207369676d6100000000000000000000000000000000000000600082015250565b600061385d600d83613816565b915061386882613827565b602082019050919050565b6000602082019050818103600083015261388c81613850565b9050919050565b7f4e487b7100000000000000000000000000000000000000000000000000000000600052603260045260246000fd5b7f4e487b7100000000000000000000000000000000000000000000000000000000600052601160045260246000fd5b60006138fc82613196565b915061390783613196565b925082820190508082111561391f5761391e6138c2565b5b92915050565b600061393082613498565b915061393b83613498565b925082820261394981613498565b91507f80000000000000000000000000000000000000000000000000000000000000008414600084121615613981576139806138c2565b5b8282058414831517613996576139956138c2565b5b5092915050565b60006139a882613196565b91506139b383613196565b92508282039050818111156139cb576139ca6138c2565b5b9291505056fea26469706673582212206adc66572598f97d9bb145e76159f66e05654f3fd7cb11a84eb7dd8a403ba29364736f6c63430008190033",
  "linkReferences": {},
  "deployedLinkReferences": {}
}